{
  "_format": "hh-sol-artifact-1",
  "contractName": "Devoleum",
  "sourceName": "src/Devoleum.sol",
  "abi": [
    {
      "anonymous": false,
      "inputs": [
        {
          "indexed": true,
          "internalType": "address",
          "name": "previousOwner",
          "type": "address"
        },
        {
          "indexed": true,
          "internalType": "address",
          "name": "newOwner",
          "type": "address"
        }
      ],
      "name": "OwnershipTransferred",
      "type": "event"
    },
    {
      "anonymous": false,
      "inputs": [
        {
          "indexed": false,
          "internalType": "uint256",
          "name": "_id",
          "type": "uint256"
        },
        {
          "indexed": false,
          "internalType": "string",
          "name": "_hash",
          "type": "string"
        }
      ],
      "name": "StepProofCreated",
      "type": "event"
    },
    {
      "inputs": [
        {
          "internalType": "string",
          "name": "_hashOfJson",
          "type": "string"
        }
      ],
      "name": "createStepProof",
      "outputs": [
        {
          "internalType": "uint256",
          "name": "stepID",
          "type": "uint256"
        }
      ],
      "stateMutability": "nonpayable",
      "type": "function"
    },
    {
      "inputs": [
        {
          "internalType": "string",
          "name": "",
          "type": "string"
        }
      ],
      "name": "hashToId",
      "outputs": [
        {
          "internalType": "uint256",
          "name": "",
          "type": "uint256"
        }
      ],
      "stateMutability": "view",
      "type": "function"
    },
    {
      "inputs": [],
      "name": "owner",
      "outputs": [
        {
          "internalType": "address",
          "name": "",
          "type": "address"
        }
      ],
      "stateMutability": "view",
      "type": "function"
    },
    {
      "inputs": [],
      "name": "renounceOwnership",
      "outputs": [],
      "stateMutability": "nonpayable",
      "type": "function"
    },
    {
      "inputs": [
        {
          "internalType": "uint256",
          "name": "",
          "type": "uint256"
        }
      ],
      "name": "stepIdToStepInfo",
      "outputs": [
        {
          "internalType": "uint256",
          "name": "createdAt",
          "type": "uint256"
        },
        {
          "internalType": "string",
          "name": "hashOfJson",
          "type": "string"
        }
      ],
      "stateMutability": "view",
      "type": "function"
    },
    {
      "inputs": [],
      "name": "stepsCounter",
      "outputs": [
        {
          "internalType": "uint256",
          "name": "",
          "type": "uint256"
        }
      ],
      "stateMutability": "view",
      "type": "function"
    },
    {
      "inputs": [
        {
          "internalType": "address",
          "name": "newOwner",
          "type": "address"
        }
      ],
      "name": "transferOwnership",
      "outputs": [],
      "stateMutability": "nonpayable",
      "type": "function"
    }
  ],
  "bytecode": "0x6080604052600060015534801561001557600080fd5b5061002661002161002b565b61002f565b61007f565b3390565b600080546001600160a01b038381166001600160a01b0319831681178455604051919092169283917f8be0079c531659141344cd1fd0a4f28419497f9722a3daafe3b4186f6b6457e09190a35050565b6108878061008e6000396000f3fe608060405234801561001057600080fd5b506004361061007d5760003560e01c80638da5cb5b1161005b5780638da5cb5b146100d6578063aea43092146100eb578063c83adf82146100fe578063f2fde38b146101065761007d565b806301ca159214610082578063121b618e146100ac578063715018a6146100cc575b600080fd5b61009561009036600461063d565b610119565b6040516100a3929190610772565b60405180910390f35b6100bf6100ba36600461059c565b6101be565b6040516100a39190610733565b6100d46101db565b005b6100de6101ef565b6040516100a39190610681565b6100bf6100f936600461052f565b6101fe565b6100bf610389565b6100d4610114366004610508565b61038f565b6002602052600090815260409020805460018201805491929161013b90610800565b80601f016020809104026020016040519081016040528092919081815260200182805461016790610800565b80156101b45780601f10610189576101008083540402835291602001916101b4565b820191906000526020600020905b81548152906001019060200180831161019757829003601f168201915b5050505050905082565b805160208183018101805160038252928201919093012091525481565b6101e36103c9565b6101ed6000610408565b565b6000546001600160a01b031690565b60006102086103c9565b82828080601f016020809104026020016040519081016040528093929190818152602001838380828437600092019190915250506040516003925061024f91508390610665565b9081526020016040518091039020546000146102865760405162461bcd60e51b815260040161027d906106db565b60405180910390fd5b6000604051806040016040528042815260200186868080601f0160208091040260200160405190810160405280939291908181526020018383808284376000920191909152505050915250600180549192506102e29190610458565b6001818155600091825260026020908152604090922083518155828401518051859492936103159390850192019061046f565b509050506001546003868660405161032e929190610655565b9081526020016040518091039020819055507f8da59dbb54d121aaa28411350b55194b6e8468a59d605ae71659e103d8f0df1360015486866040516103759392919061073c565b60405180910390a150506001549392505050565b60015481565b6103976103c9565b6001600160a01b0381166103bd5760405162461bcd60e51b815260040161027d90610695565b6103c681610408565b50565b6103d161046b565b6001600160a01b03166103e26101ef565b6001600160a01b0316146101ed5760405162461bcd60e51b815260040161027d906106fe565b600080546001600160a01b038381166001600160a01b0319831681178455604051919092169283917f8be0079c531659141344cd1fd0a4f28419497f9722a3daafe3b4186f6b6457e09190a35050565b600061046482846107ac565b9392505050565b3390565b82805461047b90610800565b90600052602060002090601f01602090048101928261049d57600085556104e3565b82601f106104b657805160ff19168380011785556104e3565b828001600101855582156104e3579182015b828111156104e35782518255916020019190600101906104c8565b506104ef9291506104f3565b5090565b5b808211156104ef57600081556001016104f4565b600060208284031215610519578081fd5b81356001600160a01b0381168114610464578182fd5b60008060208385031215610541578081fd5b823567ffffffffffffffff80821115610558578283fd5b818501915085601f83011261056b578283fd5b813581811115610579578384fd5b86602082850101111561058a578384fd5b60209290920196919550909350505050565b600060208083850312156105ae578182fd5b823567ffffffffffffffff808211156105c5578384fd5b818501915085601f8301126105d8578384fd5b8135818111156105ea576105ea61083b565b604051601f8201601f191681018501838111828210171561060d5761060d61083b565b6040528181528382018501881015610623578586fd5b818585018683013790810190930193909352509392505050565b60006020828403121561064e578081fd5b5035919050565b6000828483379101908152919050565b600082516106778184602087016107d0565b9190910192915050565b6001600160a01b0391909116815260200190565b60208082526026908201527f4f776e61626c653a206e6577206f776e657220697320746865207a65726f206160408201526564647265737360d01b606082015260800190565b6020808252600990820152686475706c696361746560b81b604082015260600190565b6020808252818101527f4f776e61626c653a2063616c6c6572206973206e6f7420746865206f776e6572604082015260600190565b90815260200190565b60008482526040602083015282604083015282846060840137818301606090810191909152601f909201601f1916010192915050565b60008382526040602083015282518060408401526107978160608501602087016107d0565b601f01601f1916919091016060019392505050565b600082198211156107cb57634e487b7160e01b81526011600452602481fd5b500190565b60005b838110156107eb5781810151838201526020016107d3565b838111156107fa576000848401525b50505050565b60028104600182168061081457607f821691505b6020821081141561083557634e487b7160e01b600052602260045260246000fd5b50919050565b634e487b7160e01b600052604160045260246000fdfea2646970667358221220a91b3f2446752936c2f64efe0d77de20bd47f119bb92a511a8ea30682688e88664736f6c63430008000033",
  "linkReferences": {},
  "deployedLinkReferences": {}
}