{
  "contractName": "Devoleum",
  "abi": [
    {
      "anonymous": false,
      "inputs": [
        {
          "indexed": true,
          "internalType": "address",
          "name": "previousOwner",
          "type": "address"
        },
        {
          "indexed": true,
          "internalType": "address",
          "name": "newOwner",
          "type": "address"
        }
      ],
      "name": "OwnershipTransferred",
      "type": "event"
    },
    {
      "anonymous": false,
      "inputs": [
        {
          "indexed": false,
          "internalType": "uint256",
          "name": "_id",
          "type": "uint256"
        },
        {
          "indexed": false,
          "internalType": "string",
          "name": "hash",
          "type": "string"
        }
      ],
      "name": "StepProofCreated",
      "type": "event"
    },
    {
      "constant": true,
      "inputs": [],
      "name": "isOwner",
      "outputs": [
        {
          "internalType": "bool",
          "name": "",
          "type": "bool"
        }
      ],
      "payable": false,
      "stateMutability": "view",
      "type": "function"
    },
    {
      "constant": true,
      "inputs": [],
      "name": "owner",
      "outputs": [
        {
          "internalType": "address",
          "name": "",
          "type": "address"
        }
      ],
      "payable": false,
      "stateMutability": "view",
      "type": "function"
    },
    {
      "constant": false,
      "inputs": [],
      "name": "renounceOwnership",
      "outputs": [],
      "payable": false,
      "stateMutability": "nonpayable",
      "type": "function"
    },
    {
      "constant": true,
      "inputs": [
        {
          "internalType": "uint256",
          "name": "",
          "type": "uint256"
        }
      ],
      "name": "stepIdToStepInfo",
      "outputs": [
        {
          "internalType": "uint256",
          "name": "createdAt",
          "type": "uint256"
        },
        {
          "internalType": "string",
          "name": "hashOfJson",
          "type": "string"
        }
      ],
      "payable": false,
      "stateMutability": "view",
      "type": "function"
    },
    {
      "constant": true,
      "inputs": [],
      "name": "stepsCounter",
      "outputs": [
        {
          "internalType": "uint256",
          "name": "",
          "type": "uint256"
        }
      ],
      "payable": false,
      "stateMutability": "view",
      "type": "function"
    },
    {
      "constant": false,
      "inputs": [
        {
          "internalType": "address",
          "name": "newOwner",
          "type": "address"
        }
      ],
      "name": "transferOwnership",
      "outputs": [],
      "payable": false,
      "stateMutability": "nonpayable",
      "type": "function"
    },
    {
      "constant": false,
      "inputs": [
        {
          "internalType": "string",
          "name": "_hashOfJson",
          "type": "string"
        }
      ],
      "name": "createStepProof",
      "outputs": [
        {
          "internalType": "uint256",
          "name": "stepID",
          "type": "uint256"
        }
      ],
      "payable": false,
      "stateMutability": "nonpayable",
      "type": "function"
    },
    {
      "constant": true,
      "inputs": [
        {
          "internalType": "uint256",
          "name": "_id",
          "type": "uint256"
        }
      ],
      "name": "getStepProofInfo",
      "outputs": [
        {
          "internalType": "uint256",
          "name": "createdAt",
          "type": "uint256"
        },
        {
          "internalType": "string",
          "name": "hashOfJson",
          "type": "string"
        }
      ],
      "payable": false,
      "stateMutability": "view",
      "type": "function"
    }
  ],
  "bytecode": "0x6080604052600060015560006100196100bc60201b60201c565b9050806000806101000a81548173ffffffffffffffffffffffffffffffffffffffff021916908373ffffffffffffffffffffffffffffffffffffffff1602179055508073ffffffffffffffffffffffffffffffffffffffff16600073ffffffffffffffffffffffffffffffffffffffff167f8be0079c531659141344cd1fd0a4f28419497f9722a3daafe3b4186f6b6457e060405160405180910390a3506100c4565b600033905090565b610bcd806100d36000396000f3fe608060405234801561001057600080fd5b50600436106100885760003560e01c8063aea430921161005b578063aea43092146101b1578063c83adf821461023e578063c97518841461025c578063f2fde38b1461030a57610088565b806301ca15921461008d578063715018a61461013b5780638da5cb5b146101455780638f32d59b1461018f575b600080fd5b6100b9600480360360208110156100a357600080fd5b810190808035906020019092919050505061034e565b6040518083815260200180602001828103825283818151815260200191508051906020019080838360005b838110156100ff5780820151818401526020810190506100e4565b50505050905090810190601f16801561012c5780820380516001836020036101000a031916815260200191505b50935050505060405180910390f35b61014361040a565b005b61014d610543565b604051808273ffffffffffffffffffffffffffffffffffffffff1673ffffffffffffffffffffffffffffffffffffffff16815260200191505060405180910390f35b61019761056c565b604051808215151515815260200191505060405180910390f35b610228600480360360208110156101c757600080fd5b81019080803590602001906401000000008111156101e457600080fd5b8201836020820111156101f657600080fd5b8035906020019184600183028401116401000000008311171561021857600080fd5b90919293919293905050506105ca565b6040518082815260200191505060405180910390f35b61024661077d565b6040518082815260200191505060405180910390f35b6102886004803603602081101561027257600080fd5b8101908080359060200190929190505050610783565b6040518083815260200180602001828103825283818151815260200191508051906020019080838360005b838110156102ce5780820151818401526020810190506102b3565b50505050905090810190601f1680156102fb5780820380516001836020036101000a031916815260200191505b50935050505060405180910390f35b61034c6004803603602081101561032057600080fd5b81019080803573ffffffffffffffffffffffffffffffffffffffff169060200190929190505050610859565b005b6002602052806000526040600020600091509050806000015490806001018054600181600116156101000203166002900480601f0160208091040260200160405190810160405280929190818152602001828054600181600116156101000203166002900480156104005780601f106103d557610100808354040283529160200191610400565b820191906000526020600020905b8154815290600101906020018083116103e357829003601f168201915b5050505050905082565b61041261056c565b610484576040517f08c379a00000000000000000000000000000000000000000000000000000000081526004018080602001828103825260208152602001807f4f776e61626c653a2063616c6c6572206973206e6f7420746865206f776e657281525060200191505060405180910390fd5b600073ffffffffffffffffffffffffffffffffffffffff166000809054906101000a900473ffffffffffffffffffffffffffffffffffffffff1673ffffffffffffffffffffffffffffffffffffffff167f8be0079c531659141344cd1fd0a4f28419497f9722a3daafe3b4186f6b6457e060405160405180910390a360008060006101000a81548173ffffffffffffffffffffffffffffffffffffffff021916908373ffffffffffffffffffffffffffffffffffffffff160217905550565b60008060009054906101000a900473ffffffffffffffffffffffffffffffffffffffff16905090565b60008060009054906101000a900473ffffffffffffffffffffffffffffffffffffffff1673ffffffffffffffffffffffffffffffffffffffff166105ae6108df565b73ffffffffffffffffffffffffffffffffffffffff1614905090565b60006105d461056c565b610646576040517f08c379a00000000000000000000000000000000000000000000000000000000081526004018080602001828103825260208152602001807f4f776e61626c653a2063616c6c6572206973206e6f7420746865206f776e657281525060200191505060405180910390fd5b61064e610ab3565b604051806040016040528042815260200185858080601f016020809104026020016040519081016040528093929190818152602001838380828437600081840152601f19601f8201169050808301925050505050505081525090506106be600180546108e790919063ffffffff16565b60018190555080600260006001548152602001908152602001600020600082015181600001556020820151816001019080519060200190610700929190610acd565b509050507f8da59dbb54d121aaa28411350b55194b6e8468a59d605ae71659e103d8f0df13600154858560405180848152602001806020018281038252848482818152602001925080828437600081840152601f19601f82011690508083019250505094505050505060405180910390a160015491505092915050565b60015481565b60006060600260008481526020019081526020016000206000015460026000858152602001908152602001600020600101808054600181600116156101000203166002900480601f0160208091040260200160405190810160405280929190818152602001828054600181600116156101000203166002900480156108495780601f1061081e57610100808354040283529160200191610849565b820191906000526020600020905b81548152906001019060200180831161082c57829003601f168201915b5050505050905091509150915091565b61086161056c565b6108d3576040517f08c379a00000000000000000000000000000000000000000000000000000000081526004018080602001828103825260208152602001807f4f776e61626c653a2063616c6c6572206973206e6f7420746865206f776e657281525060200191505060405180910390fd5b6108dc8161096f565b50565b600033905090565b600080828401905083811015610965576040517f08c379a000000000000000000000000000000000000000000000000000000000815260040180806020018281038252601b8152602001807f536166654d6174683a206164646974696f6e206f766572666c6f77000000000081525060200191505060405180910390fd5b8091505092915050565b600073ffffffffffffffffffffffffffffffffffffffff168173ffffffffffffffffffffffffffffffffffffffff1614156109f5576040517f08c379a0000000000000000000000000000000000000000000000000000000008152600401808060200182810382526026815260200180610b736026913960400191505060405180910390fd5b8073ffffffffffffffffffffffffffffffffffffffff166000809054906101000a900473ffffffffffffffffffffffffffffffffffffffff1673ffffffffffffffffffffffffffffffffffffffff167f8be0079c531659141344cd1fd0a4f28419497f9722a3daafe3b4186f6b6457e060405160405180910390a3806000806101000a81548173ffffffffffffffffffffffffffffffffffffffff021916908373ffffffffffffffffffffffffffffffffffffffff16021790555050565b604051806040016040528060008152602001606081525090565b828054600181600116156101000203166002900490600052602060002090601f016020900481019282601f10610b0e57805160ff1916838001178555610b3c565b82800160010185558215610b3c579182015b82811115610b3b578251825591602001919060010190610b20565b5b509050610b499190610b4d565b5090565b610b6f91905b80821115610b6b576000816000905550600101610b53565b5090565b9056fe4f776e61626c653a206e6577206f776e657220697320746865207a65726f2061646472657373a265627a7a72315820e29638c1d568ad5b318df63ffa31a1bf1f5b2e3ef0ca01cc67c32d9ded8d97f364736f6c63430005100032",
  "source": "// SPDX-License-Identifier: MIT\r\npragma solidity >=0.4.22 <0.9.0;\r\n\r\nimport \"@openzeppelin/contracts/ownership/Ownable.sol\";\r\nimport \"@openzeppelin/contracts/math/SafeMath.sol\";\r\n\r\n/// @title Devoleum\r\n/// @author Lorenzo Zaccagnini Elisa Romondia\r\n/// @notice You can use this contract for your JSONs notarization\r\n/// @dev All function calls are currently implemented without side effects\r\ncontract Devoleum is Ownable {\r\n    using SafeMath for uint256;\r\n\r\n    struct Step {\r\n        uint256 createdAt;\r\n        string hashOfJson;\r\n    }\r\n\r\n    //COUNTERS\r\n    uint256 public stepsCounter = 0;\r\n\r\n    //STRUCT MAPPINGS\r\n    mapping(uint256 => Step) public stepIdToStepInfo;\r\n    event StepProofCreated(uint256 _id, string hash);\r\n\r\n    /// @notice Notarizes a supply chain Step Proof\r\n    /// @param _hashOfJson The hash proof of the JSON file\r\n    /// @return The numeric ID of the Step proof\r\n    function createStepProof(string calldata _hashOfJson)\r\n        external\r\n        onlyOwner\r\n        returns (uint256 stepID)\r\n    {\r\n        Step memory newStep = Step(now, _hashOfJson);\r\n        stepsCounter = stepsCounter.add(1);\r\n        stepIdToStepInfo[stepsCounter] = newStep;\r\n        emit StepProofCreated(stepsCounter, _hashOfJson);\r\n        return stepsCounter;\r\n    }\r\n\r\n    /// @notice Get the Step Info by a given array id\r\n    /// @param _id The numeric id of the Step in the array\r\n    /// @return the Step Info\r\n    function getStepProofInfo(uint256 _id)\r\n        external\r\n        view\r\n        returns (\r\n            uint256 createdAt,\r\n            string memory hashOfJson\r\n        )\r\n    {\r\n        return (\r\n            stepIdToStepInfo[_id].createdAt,\r\n            stepIdToStepInfo[_id].hashOfJson\r\n        );\r\n    }\r\n}\r\n",
  "sourcePath": "C:\\Users\\Elisa\\Desktop\\GitHub\\devoleum-eth-notarization-muninn\\contracts\\Devoleum.sol",
  "compiler": {
    "name": "solc",
    "version": "0.5.16+commit.9c3226ce.Emscripten.clang"
  },
  "schemaVersion": "3.2.0",
  "updatedAt": "2021-01-12T23:09:56.375Z",
  "networkType": "ethereum",
  "devdoc": {
    "author": "Lorenzo Zaccagnini Elisa Romondia",
    "details": "All function calls are currently implemented without side effects",
    "methods": {
      "createStepProof(string)": {
        "params": {
          "_hashOfJson": "The hash proof of the JSON file"
        },
        "return": "The numeric ID of the Step proof"
      },
      "getStepProofInfo(uint256)": {
        "params": {
          "_id": "The numeric id of the Step in the array"
        },
        "return": "the Step Info"
      },
      "isOwner()": {
        "details": "Returns true if the caller is the current owner."
      },
      "owner()": {
        "details": "Returns the address of the current owner."
      },
      "renounceOwnership()": {
        "details": "Leaves the contract without owner. It will not be possible to call `onlyOwner` functions anymore. Can only be called by the current owner.     * NOTE: Renouncing ownership will leave the contract without an owner, thereby removing any functionality that is only available to the owner."
      },
      "transferOwnership(address)": {
        "details": "Transfers ownership of the contract to a new account (`newOwner`). Can only be called by the current owner."
      }
    },
    "title": "Devoleum"
  },
  "userdoc": {
    "methods": {
      "createStepProof(string)": {
        "notice": "Notarizes a supply chain Step Proof"
      },
      "getStepProofInfo(uint256)": {
        "notice": "Get the Step Info by a given array id"
      }
    },
    "notice": "You can use this contract for your JSONs notarization"
  }
}